LX51 LINKER/LOCATER V4.66.97.0                                                          02/28/2025  14:36:19  PAGE 1


LX51 LINKER/LOCATER V4.66.97.0, INVOKED BY:
C:\KEIL_V5\C51\BIN\LX51.EXE .\Objects\STARTUP.obj, .\Objects\main.obj, .\Objects\csot_patch_handler.obj TO .\Objects\Ioa
>> _patch PRINT (.\Listings\Ioa_patch.map) CLASSES (XDATA (X:0X9000-X:0X97FF), HDATA (X:0X9000-X:0X97FF), CODE (C:0X0-C:
>> 0X4FFF), CONST (C:0X0-C:0X4FFF), ECODE (C:0X0-C:0X4FFF), HCONST (C:0X0-C:0X4FFF)) SEGMENTS (?PR?MCU_ENTRY_DL_HDR?CSOT
>> _PATCH_HANDLER (C:0X0473), ?PR?MCU_DMA_I2C_SLV_SET_CH1?CSOT_PATCH_HANDLER (C:0X0F8C), ?PR?LUT_I2C_SLV_RW_VSYNC_HANDLE
>> R?CSOT_PATCH_HANDLER (C:0X14FC), ?PR?MCU_DL_GET_EE_PATH?CSOT_PATCH_HANDLER (C:0X1922), ?PR?TCON_DET_LUT_I2C_ADR?CSOT_
>> PATCH_HANDLER (C:0X1A66), ?PR?MCU_INT_CLEAR_IEX4_ISR_EVENT?CSOT_PATCH_HANDLER (C:0X1AD9), ?PR?MCU_INIT?CSOT_PATCH_HAN
>> DLER (C:0X1AEB), ?PR?MCU_INT_VSYNC?CSOT_PATCH_HANDLER (C:0X1B5D), ?PR?MCU_DL_CHECK?CSOT_PATCH_HANDLER (C:0X1BA7), ?PR
>> ?PATCH_SINGAL_ESD_MASK?CSOT_PATCH_HANDLER (C:0X2B88), ?PR?PATCH_WATDOG_INIT?CSOT_PATCH_HANDLER (C:0X2BF8), ?PR?PATCH_
>> MAIN_LOOP_CLR_WDOG?CSOT_PATCH_HANDLER (C:0X2C1A), ?PR?PATCH_MCU_ENTRY_DL_HDR?CSOT_PATCH_HANDLER, ?PR?DOUBLE_PATCH_PDF
>> _WAIT_REG_FINISH_HANDLER?CSOT_PATCH_HANDLER (C:0X2C26), ?PR?DOUBLE_PATCH_IEX4_INTERRUPT?CSOT_PATCH_HANDLER, ?PR?PATCH
>> _PDF_HIT_POL_2_WAIT_REG_FINISH_HANDLER?CSOT_PATCH_HANDLER (C:0X2C35), ?PR?PATCH_PDF_HIT_FRAME_INTERRUPT_HANDLER?CSOT_
>> PATCH_HANDLER (C:0X2C3B), ?PR?PATCH_MONITOR_PDF_HIT_POL_2_FRAME_WAIT_FINISH?CSOT_PATCH_HANDLER (C:0X2C41), ?PR?PATCH_
>> PDF_HIT_FRAME_WAIT_REG_FINISH?CSOT_PATCH_HANDLER (C:0X2C60), ?PR?PATCH_PDF_HIT_FRAME_MONITOR_HIT_INTERRUTP?CSOT_PATCH
>> _HANDLER, ?PR?PATCH_EFUSE_TRIM?CSOT_PATCH_HANDLER (C:0X2D00), ?PR?PATCH_MONITOR_LVDS_UNLOCK_IRQ_EVENT?CSOT_PATCH_HAND
>> LER (C:0X2D88), ?PR?PATCH_DELAY_100US?CSOT_PATCH_HANDLER, ?PR?PATCH_MCU_WDT_INIT?CSOT_PATCH_HANDLER (C:0X2DD0), ?PR?P
>> ATCH_MCU_WDT_RESET?CSOT_PATCH_HANDLER, ?PR?PATCH_PDF_HIT_FRAME_MONITOR_POL_2_FRAME_INTERRUTP?CSOT_PATCH_HANDLER (C:0X
>> 2EA0), ?PR?PATCH_SINGAL_ESD_NORMAL_ACTION?CSOT_PATCH_HANDLER (C:0X2ECC), ?PR?PATCH_RESET_RX_FLOW?CSOT_PATCH_HANDLER (
>> C:0X2EF0))


CPU MODE:     8051 MODE
MEMORY MODEL: SMALL


INPUT MODULES INCLUDED:
  .\Objects\STARTUP.obj (?C_STARTUP)
         COMMENT TYPE 0: AX51 V3.15.3.0
  .\Objects\main.obj (MAIN)
         COMMENT TYPE 0: C51 V9.60.0.0
  .\Objects\csot_patch_handler.obj (CSOT_PATCH_HANDLER)
         COMMENT TYPE 0: C51 V9.60.0.0


ACTIVE MEMORY CLASSES OF MODULE:  .\Objects\Ioa_patch (?C_STARTUP)

BASE        START       END         USED      MEMORY CLASS
==========================================================
X:000000H   X:009000H   X:0097FFH   000020H   XDATA
X:000000H   X:009000H   X:0097FFH             HDATA
C:000000H   C:000000H   C:004FFFH   000245H   CODE
C:000000H   C:000000H   C:004FFFH             CONST
C:000000H   C:000000H   C:004FFFH             ECODE
C:000000H   C:000000H   C:004FFFH             HCONST
I:000020H.0 I:000020H.0 I:00002FH.7 000000H.3 BIT
I:000000H   I:000000H   I:0000FFH   000001H   IDATA
I:000000H   I:000000H   I:00007FH   00000AH   DATA


MEMORY MAP OF MODULE:  .\Objects\Ioa_patch (?C_STARTUP)


START     STOP      LENGTH    ALIGN  RELOC    MEMORY CLASS   SEGMENT NAME
=========================================================================

* * * * * * * * * * *   D A T A   M E M O R Y   * * * * * * * * * * * * *
000000H   000007H   000008H   ---    AT..     DATA           "REG BANK 0"
000008H.0 000021H.1 000019H.2 ---    ---      **GAP**
000021H.2 000021H.2 000000H.1 ---    OFFS..   BIT            ?BI?STARTUP?1
000021H.3 000023H.4 000002H.2 ---    ---      **GAP**
000023H.5 000023H.5 000000H.1 ---    OFFS..   BIT            ?BI?STARTUP?2
000023H.6 000024H.2 000000H.5 ---    ---      **GAP**
000024H.3 000024H.3 000000H.1 ---    OFFS..   BIT            ?BI?STARTUP?3
000024H.4 00005FH   00003BH.4 ---    ---      **GAP**
000060H   000060H   000001H   BYTE   OFFS..   DATA           ?DA?CSOT_PATCH_HANDLER?25
000061H   000061H   000001H   BYTE   OFFS..   DATA           ?DA?CSOT_PATCH_HANDLER?32
LX51 LINKER/LOCATER V4.66.97.0                                                        02/28/2025  14:36:19  PAGE 2


000062H   000062H   000001H   BYTE   UNIT     IDATA          ?STACK

* * * * * * * * * * *   C O D E   M E M O R Y   * * * * * * * * * * * * *
000000H   000002H   000003H   ---    OFFS..   CODE           ?CO?STARTUP?6
000003H   000007H   000005H   BYTE   INBLOCK  CODE           ?PR?MAIN?MAIN
000008H   000013H   00000CH   BYTE   UNIT     CODE           ?C_C51STARTUP
000014H   000472H   00045FH   ---    ---      **GAP**
000473H   000473H   000001H   BYTE   INBLOCK  CODE           ?PR?MCU_ENTRY_DL_HDR?CSOT_PATCH_HANDLER
000474H   000F8BH   000B18H   ---    ---      **GAP**
000F8CH   000F8CH   000001H   BYTE   INBLOCK  CODE           ?PR?MCU_DMA_I2C_SLV_SET_CH1?CSOT_PATCH_HANDLER
000F8DH   0014FBH   00056FH   ---    ---      **GAP**
0014FCH   0014FCH   000001H   BYTE   INBLOCK  CODE           ?PR?LUT_I2C_SLV_RW_VSYNC_HANDLER?CSOT_PATCH_HANDLER
0014FDH   001921H   000425H   ---    ---      **GAP**
001922H   001922H   000001H   BYTE   INBLOCK  CODE           ?PR?MCU_DL_GET_EE_PATH?CSOT_PATCH_HANDLER
001923H   001A65H   000143H   ---    ---      **GAP**
001A66H   001A66H   000001H   BYTE   INBLOCK  CODE           ?PR?TCON_DET_LUT_I2C_ADR?CSOT_PATCH_HANDLER
001A67H   001AD8H   000072H   ---    ---      **GAP**
001AD9H   001AD9H   000001H   BYTE   INBLOCK  CODE           ?PR?MCU_INT_CLEAR_IEX4_ISR_EVENT?CSOT_PATCH_HANDLER
001ADAH   001AEAH   000011H   ---    ---      **GAP**
001AEBH   001AEBH   000001H   BYTE   INBLOCK  CODE           ?PR?MCU_INIT?CSOT_PATCH_HANDLER
001AECH   001B5CH   000071H   ---    ---      **GAP**
001B5DH   001B5DH   000001H   BYTE   INBLOCK  CODE           ?PR?MCU_INT_VSYNC?CSOT_PATCH_HANDLER
001B5EH   001BA6H   000049H   ---    ---      **GAP**
001BA7H   001BA7H   000001H   BYTE   INBLOCK  CODE           ?PR?MCU_DL_CHECK?CSOT_PATCH_HANDLER
001BA8H   002B87H   000FE0H   ---    ---      **GAP**
002B88H   002BACH   000025H   BYTE   INBLOCK  CODE           ?PR?PATCH_SINGAL_ESD_MASK?CSOT_PATCH_HANDLER
002BADH   002BF7H   00004BH   ---    ---      **GAP**
002BF8H   002BFDH   000006H   BYTE   INBLOCK  CODE           ?PR?PATCH_WATDOG_INIT?CSOT_PATCH_HANDLER
002BFEH   002C19H   00001CH   ---    ---      **GAP**
002C1AH   002C1FH   000006H   BYTE   INBLOCK  CODE           ?PR?PATCH_MAIN_LOOP_CLR_WDOG?CSOT_PATCH_HANDLER
002C20H   002C25H   000006H   BYTE   INBLOCK  CODE           ?PR?PATCH_MCU_ENTRY_DL_HDR?CSOT_PATCH_HANDLER
002C26H   002C2BH   000006H   BYTE   INBLOCK  CODE           ?PR?DOUBLE_PATCH_PDF_WAIT_REG_FINISH_HANDLER?CSOT_PATCH_HA
                                                             -NDLER
002C2CH   002C34H   000009H   BYTE   INBLOCK  CODE           ?PR?DOUBLE_PATCH_IEX4_INTERRUPT?CSOT_PATCH_HANDLER
002C35H   002C3AH   000006H   BYTE   INBLOCK  CODE           ?PR?PATCH_PDF_HIT_POL_2_WAIT_REG_FINISH_HANDLER?CSOT_PATCH
                                                             -_HANDLER
002C3BH   002C40H   000006H   BYTE   INBLOCK  CODE           ?PR?PATCH_PDF_HIT_FRAME_INTERRUPT_HANDLER?CSOT_PATCH_HANDL
                                                             -ER
002C41H   002C55H   000015H   BYTE   INBLOCK  CODE           ?PR?PATCH_MONITOR_PDF_HIT_POL_2_FRAME_WAIT_FINISH?CSOT_PAT
                                                             -CH_HANDLER
002C56H   002C5FH   00000AH   ---    ---      **GAP**
002C60H   002C96H   000037H   BYTE   INBLOCK  CODE           ?PR?PATCH_PDF_HIT_FRAME_WAIT_REG_FINISH?CSOT_PATCH_HANDLER
002C97H   002CD6H   000040H   BYTE   INBLOCK  CODE           ?PR?PATCH_PDF_HIT_FRAME_MONITOR_HIT_INTERRUTP?CSOT_PATCH_H
                                                             -ANDLER
002CD7H   002CFFH   000029H   ---    ---      **GAP**
002D00H   002D86H   000087H   BYTE   INBLOCK  CODE           ?PR?PATCH_EFUSE_TRIM?CSOT_PATCH_HANDLER
002D87H   002D87H   000001H   ---    ---      **GAP**
002D88H   002DAFH   000028H   BYTE   INBLOCK  CODE           ?PR?PATCH_MONITOR_LVDS_UNLOCK_IRQ_EVENT?CSOT_PATCH_HANDLER
002DB0H   002DC8H   000019H   BYTE   INBLOCK  CODE           ?PR?PATCH_DELAY_100US?CSOT_PATCH_HANDLER
002DC9H   002DCFH   000007H   ---    ---      **GAP**
002DD0H   002DD3H   000004H   BYTE   INBLOCK  CODE           ?PR?PATCH_MCU_WDT_INIT?CSOT_PATCH_HANDLER
002DD4H   002DD8H   000005H   BYTE   INBLOCK  CODE           ?PR?PATCH_MCU_WDT_RESET?CSOT_PATCH_HANDLER
002DD9H   002E9FH   0000C7H   ---    ---      **GAP**
002EA0H   002ECBH   00002CH   BYTE   INBLOCK  CODE           ?PR?PATCH_PDF_HIT_FRAME_MONITOR_POL_2_FRAME_INTERRUTP?CSOT
                                                             -_PATCH_HANDLER
002ECCH   002EDEH   000013H   BYTE   INBLOCK  CODE           ?PR?PATCH_SINGAL_ESD_NORMAL_ACTION?CSOT_PATCH_HANDLER
002EDFH   002EEFH   000011H   ---    ---      **GAP**
002EF0H   002F29H   00003AH   BYTE   INBLOCK  CODE           ?PR?PATCH_RESET_RX_FLOW?CSOT_PATCH_HANDLER

* * * * * * * * * * *  X D A T A   M E M O R Y  * * * * * * * * * * * * *
001001H   001001H   000001H   BYTE   OFFS..   XDATA          ?XD?CSOT_PATCH_HANDLER?31
001002H   001022H   000021H   ---    ---      **GAP**
001023H   001023H   000001H   BYTE   OFFS..   XDATA          ?XD?CSOT_PATCH_HANDLER?1
001024H   001805H   0007E2H   ---    ---      **GAP**
001806H   001806H   000001H   BYTE   OFFS..   XDATA          ?XD?CSOT_PATCH_HANDLER?17
LX51 LINKER/LOCATER V4.66.97.0                                                        02/28/2025  14:36:19  PAGE 3


001807H   001809H   000003H   ---    ---      **GAP**
00180AH   00180AH   000001H   BYTE   OFFS..   XDATA          ?XD?CSOT_PATCH_HANDLER?14
00180BH   00184DH   000043H   ---    ---      **GAP**
00184EH   00184EH   000001H   BYTE   OFFS..   XDATA          ?XD?CSOT_PATCH_HANDLER?11
00184FH   001874H   000026H   ---    ---      **GAP**
001875H   001875H   000001H   BYTE   OFFS..   XDATA          ?XD?CSOT_PATCH_HANDLER?26
001876H   003800H   001F8BH   ---    ---      **GAP**
003801H   003801H   000001H   BYTE   OFFS..   XDATA          ?XD?CSOT_PATCH_HANDLER?2
003802H   003815H   000014H   ---    ---      **GAP**
003816H   003816H   000001H   BYTE   OFFS..   XDATA          ?XD?CSOT_PATCH_HANDLER?5
003817H   003817H   000001H   BYTE   OFFS..   XDATA          ?XD?CSOT_PATCH_HANDLER?6
003818H   003818H   000001H   BYTE   OFFS..   XDATA          ?XD?CSOT_PATCH_HANDLER?7
003819H   003819H   000001H   BYTE   OFFS..   XDATA          ?XD?CSOT_PATCH_HANDLER?8
00381AH   003831H   000018H   ---    ---      **GAP**
003832H   003832H   000001H   BYTE   OFFS..   XDATA          ?XD?CSOT_PATCH_HANDLER?4
003833H   003838H   000006H   ---    ---      **GAP**
003839H   003839H   000001H   BYTE   OFFS..   XDATA          ?XD?CSOT_PATCH_HANDLER?9
00383AH   00383AH   000001H   BYTE   OFFS..   XDATA          ?XD?CSOT_PATCH_HANDLER?10
00383BH   004802H   000FC8H   ---    ---      **GAP**
004803H   004803H   000001H   BYTE   OFFS..   XDATA          ?XD?CSOT_PATCH_HANDLER?27
004804H   004804H   000001H   BYTE   OFFS..   XDATA          ?XD?CSOT_PATCH_HANDLER?29
004805H   004812H   00000EH   ---    ---      **GAP**
004813H   004813H   000001H   BYTE   OFFS..   XDATA          ?XD?CSOT_PATCH_HANDLER?23
004814H   004901H   0000EEH   ---    ---      **GAP**
004902H   004902H   000001H   BYTE   OFFS..   XDATA          ?XD?CSOT_PATCH_HANDLER?3
004903H   00582BH   000F29H   ---    ---      **GAP**
00582CH   00582CH   000001H   BYTE   OFFS..   XDATA          ?XD?CSOT_PATCH_HANDLER?12
00582DH   00693EH   001112H   ---    ---      **GAP**
00693FH   00693FH   000001H   BYTE   OFFS..   XDATA          ?XD?CSOT_PATCH_HANDLER?15
006940H   006FFFH   0006C0H   ---    ---      **GAP**
007000H   007000H   000001H   BYTE   OFFS..   XDATA          ?XD?CSOT_PATCH_HANDLER?24
007001H   00700DH   00000DH   ---    ---      **GAP**
00700EH   00700EH   000001H   BYTE   OFFS..   XDATA          ?XD?CSOT_PATCH_HANDLER?28
00700FH   00700FH   000001H   BYTE   OFFS..   XDATA          ?XD?CSOT_PATCH_HANDLER?30
007010H   00F5FFH   0085F0H   ---    ---      **GAP**
00F600H   00F600H   000001H   BYTE   OFFS..   XDATA          ?XD?CSOT_PATCH_HANDLER?22
00F601H   00F601H   000001H   BYTE   OFFS..   XDATA          ?XD?CSOT_PATCH_HANDLER?21
00F602H   00F809H   000208H   ---    ---      **GAP**
00F80AH   00F80AH   000001H   BYTE   OFFS..   XDATA          ?XD?CSOT_PATCH_HANDLER?16
00F80BH   00F80DH   000003H   ---    ---      **GAP**
00F80EH   00F80EH   000001H   BYTE   OFFS..   XDATA          ?XD?CSOT_PATCH_HANDLER?18
00F80FH   00F81BH   00000DH   ---    ---      **GAP**
00F81CH   00F81CH   000001H   BYTE   OFFS..   XDATA          ?XD?CSOT_PATCH_HANDLER?33
00F81DH   00F82AH   00000EH   ---    ---      **GAP**
00F82BH   00F82BH   000001H   BYTE   OFFS..   XDATA          ?XD?CSOT_PATCH_HANDLER?0
00F82CH   00F841H   000016H   ---    ---      **GAP**
00F842H   00F842H   000001H   BYTE   OFFS..   XDATA          ?XD?CSOT_PATCH_HANDLER?13
00F843H   00F85BH   000019H   ---    ---      **GAP**
00F85CH   00F85CH   000001H   BYTE   OFFS..   XDATA          ?XD?CSOT_PATCH_HANDLER?20
*** OVERLAP ***
00F85CH   00F85CH   000001H   BYTE   OFFS..   XDATA          ?XD?CSOT_PATCH_HANDLER?19



OVERLAY MAP OF MODULE:   .\Objects\Ioa_patch (?C_STARTUP)


FUNCTION/MODULE                                BIT_GROUP   DATA_GROUP 
--> CALLED FUNCTION/MODULE                    START  STOP  START  STOP
======================================================================
?C_C51STARTUP                                 ----- -----  ----- -----
  +--> MAIN/MAIN

MAIN/MAIN                                     ----- -----  ----- -----

LX51 LINKER/LOCATER V4.66.97.0                                                        02/28/2025  14:36:19  PAGE 4




PUBLIC SYMBOLS OF MODULE:  .\Objects\Ioa_patch (?C_STARTUP)


      VALUE       CLASS    TYPE      PUBLIC SYMBOL NAME
      =================================================
      00000000H   NUMBER   ---       ?C?CODESEG
      00000000H   NUMBER   ---       ?C?XDATASEG
      01000003H   CODE     ---       ?C_START
      01000000H   CODE     NEAR LAB  ?C_STARTUP
*SFR* 000000E0H   DATA     BYTE      ACC
*SFR* 000000F0H   DATA     BYTE      B
*SFR* 0000008EH   DATA     BYTE      CKCON
      0200F601H   XDATA    BYTE      delay_cnt_1
      01002C2CH   CODE     ---       double_patch_iex4_interrupt
      01002C26H   CODE     ---       double_patch_pdf_wait_reg_finish_handler
*SFR* 00000083H   DATA     BYTE      DPH
*SFR* 00000082H   DATA     BYTE      DPL
      00000060H   DATA     BYTE      g_monitor_pdf_level
      0200F82BH   XDATA    BYTE      g_rw_dbg_mux_002Bh_mcu_top_dbgr_2
      0200582CH   XDATA    ---       g_rw_reg_0582Ch
      0200F85CH   XDATA    ---       g_rw_reg_0F85Ch
      00000061H   DATA     BYTE      g_set_pdf_hit_val
      02007000H   XDATA    BYTE      g_Ver_Cfg
      00000041H.2 BIT      BIT       IOA_MODE
      00000043H.5 BIT      BIT       IOA_RELEASE_BUS
      010014FCH   CODE     ---       Lut_I2c_Slv_RW_Vsync_Handler
      02004902H   XDATA    BYTE      lvds_unlock_irq_ev
      01000003H   CODE     ---       main
      01001BA7H   CODE     ---       mcu_dl_check
      01001922H   CODE     ---       mcu_dl_get_ee_path
      01000F8CH   CODE     ---       mcu_dma_i2c_slv_set_ch1
      01000473H   CODE     ---       mcu_entry_dl_hdr
      01001AEBH   CODE     ---       mcu_init
      01001AD9H   CODE     ---       mcu_int_clear_iex4_isr_event
      01001B5DH   CODE     ---       mcu_int_vsync
      01002DB0H   CODE     ---       patch_delay_100us
      01002D00H   CODE     ---       Patch_efuse_trim
      01002C1AH   CODE     ---       patch_main_loop_clr_wdog
      01002C20H   CODE     ---       patch_mcu_entry_dl_hdr
      01002DD0H   CODE     ---       patch_mcu_wdt_init
      01002DD4H   CODE     ---       patch_mcu_wdt_reset
      01002D88H   CODE     ---       patch_monitor_lvds_unlock_irq_event
      01002C41H   CODE     ---       patch_monitor_pdf_hit_pol_2_frame_wait_finish
      01002C3BH   CODE     ---       patch_pdf_hit_frame_interrupt_handler
      01002C97H   CODE     ---       patch_pdf_hit_frame_monitor_hit_interrutp
      01002EA0H   CODE     ---       patch_pdf_hit_frame_monitor_pol_2_frame_interrutp
      01002C60H   CODE     ---       patch_pdf_hit_frame_wait_reg_finish
      01002C35H   CODE     ---       patch_pdf_hit_pol_2_wait_reg_finish_handler
      01002EF0H   CODE     ---       Patch_Reset_rx_flow
      01002B88H   CODE     ---       patch_singal_esd_mask
      01002ECCH   CODE     ---       patch_singal_esd_normal_action
      01002BF8H   CODE     ---       patch_watdog_init
*SFR* 000000A0H   DATA     BYTE      PPAGE_SFR
      02001001H   XDATA    BYTE      r_aip_tx_reg_sw_en
      02004813H   XDATA    BYTE      r_lvds_unlock_irq_en
      0200180AH   XDATA    BYTE      r_sscgpll_en_pll
      02001806H   XDATA    BYTE      r_sscgpll_en_sd
      02001875H   XDATA    BYTE      r_sscgpll_reg_sw_en
      02001023H   XDATA    BYTE      reg_0x1023
      0200184EH   XDATA    BYTE      reg_0x184E
      02003801H   XDATA    BYTE      reg_0x3801
      02003816H   XDATA    BYTE      reg_0x3816
      02003817H   XDATA    BYTE      reg_0x3817
LX51 LINKER/LOCATER V4.66.97.0                                                        02/28/2025  14:36:19  PAGE 5


      02003818H   XDATA    BYTE      reg_0x3818
      02003819H   XDATA    BYTE      reg_0x3819
      02003832H   XDATA    BYTE      reg_0x3832
      02003839H   XDATA    BYTE      reg_0x3839
      0200383AH   XDATA    BYTE      reg_0x383A
      0200693FH   XDATA    BYTE      reg_0x693F
      0200F80AH   XDATA    BYTE      reg_0xF80A
      0200F80EH   XDATA    BYTE      reg_0xF80E
      0200F842H   XDATA    BYTE      reg_0xF842
      0200F85CH   XDATA    BYTE      reg_0xF85C
*SFR* 00000081H   DATA     BYTE      SP
*SFR* 000000B8H.6 DATA     BIT       SWDT
      01001A66H   CODE     ---       tcon_det_lut_i2c_adr
      02004803H   XDATA    BYTE      tcon_reg_1_0
      0200700EH   XDATA    BYTE      tcon_reg_1_1
      02004804H   XDATA    BYTE      tcon_reg_2_0
      0200700FH   XDATA    BYTE      tcon_reg_2_1
      0200F81CH   XDATA    BYTE      tcon_reg_efuse_key
      0200F600H   XDATA    BYTE      trim_flg
      00000044H.3 BIT      BIT       VSYNC
*SFR* 000000A8H.6 DATA     BIT       WDT
*SFR* 00000086H   DATA     BYTE      WDTREL



SYMBOL TABLE OF MODULE:  .\Objects\Ioa_patch (?C_STARTUP)

      VALUE       REP       CLASS    TYPE      SYMBOL NAME
      ====================================================
      ---         MODULE    ---      ---       ?C_STARTUP
      01000000H   PUBLIC    CODE     NEAR LAB  ?C_STARTUP
      00000041H.2 PUBLIC    BIT      BIT       IOA_MODE
      00000043H.5 PUBLIC    BIT      BIT       IOA_RELEASE_BUS
      00000044H.3 PUBLIC    BIT      BIT       VSYNC
      000000E0H   SFRSYM    DATA     BYTE      ACC
      000000F0H   SFRSYM    DATA     BYTE      B
      00000083H   SFRSYM    DATA     BYTE      DPH
      00000082H   SFRSYM    DATA     BYTE      DPL
      000000A0H   SFRSYM    DATA     BYTE      PPAGE_SFR
      00000081H   SFRSYM    DATA     BYTE      SP
      00000000H   SYMBOL    NUMBER   ---       IBPSTACK
      00000100H   SYMBOL    NUMBER   ---       IBPSTACKTOP
      00000080H   SYMBOL    NUMBER   ---       IDATALEN
      0100000BH   SYMBOL    CODE     NEAR LAB  IDATALOOP
      00000021H.2 SYMBOL    BIT      BIT       IOA_MODE_EN
      00000023H.5 SYMBOL    BIT      BIT       IOA_RELEASE_BUS_EN
      00000000H   SYMBOL    NUMBER   ---       PBPSTACK
      00000100H   SYMBOL    NUMBER   ---       PBPSTACKTOP
      00000000H   SYMBOL    NUMBER   ---       PDATALEN
      00000000H   SYMBOL    NUMBER   ---       PDATASTART
      00000000H   SYMBOL    NUMBER   ---       PPAGE
      00000000H   SYMBOL    NUMBER   ---       PPAGEENABLE
      01000008H   SYMBOL    CODE     NEAR LAB  STARTUP1
      00000024H.3 SYMBOL    BIT      BIT       VSYNC_FLG
      00000000H   SYMBOL    NUMBER   ---       XBPSTACK
      00010000H   SYMBOL    NUMBER   ---       XBPSTACKTOP
      00000000H   SYMBOL    NUMBER   ---       XDATALEN
      00000000H   SYMBOL    NUMBER   ---       XDATASTART

      01000000H   BLOCK     CODE     NEAR LAB  LVL=0
      01000000H   LINE      CODE     ---       #141
      ---         BLOCKEND  ---      ---       LVL=0

      01000008H   BLOCK     CODE     NEAR LAB  LVL=0
      01000008H   LINE      CODE     ---       #148
LX51 LINKER/LOCATER V4.66.97.0                                                        02/28/2025  14:36:19  PAGE 6


      0100000AH   LINE      CODE     ---       #149
      0100000BH   LINE      CODE     ---       #150
      0100000CH   LINE      CODE     ---       #151
      0100000EH   LINE      CODE     ---       #200
      01000011H   LINE      CODE     ---       #211
      ---         BLOCKEND  ---      ---       LVL=0

      ---         MODULE    ---      ---       MAIN
      01000003H   PUBLIC    CODE     ---       main
      0000008EH   SFRSYM    DATA     BYTE      CKCON

      01000003H   BLOCK     CODE     ---       LVL=0
      01000003H   LINE      CODE     ---       #3
      01000003H   LINE      CODE     ---       #4
      01000003H   LINE      CODE     ---       #5
      01000006H   LINE      CODE     ---       #6
      01000006H   LINE      CODE     ---       #7
      01000006H   LINE      CODE     ---       #9
      ---         BLOCKEND  ---      ---       LVL=0

      ---         MODULE    ---      ---       CSOT_PATCH_HANDLER
      0200F81CH   PUBLIC    XDATA    BYTE      tcon_reg_efuse_key
      00000061H   PUBLIC    DATA     BYTE      g_set_pdf_hit_val
      02001001H   PUBLIC    XDATA    BYTE      r_aip_tx_reg_sw_en
      0200700FH   PUBLIC    XDATA    BYTE      tcon_reg_2_1
      02004804H   PUBLIC    XDATA    BYTE      tcon_reg_2_0
      0200700EH   PUBLIC    XDATA    BYTE      tcon_reg_1_1
      02004803H   PUBLIC    XDATA    BYTE      tcon_reg_1_0
      02001875H   PUBLIC    XDATA    BYTE      r_sscgpll_reg_sw_en
      00000060H   PUBLIC    DATA     BYTE      g_monitor_pdf_level
      02007000H   PUBLIC    XDATA    BYTE      g_Ver_Cfg
      02004813H   PUBLIC    XDATA    BYTE      r_lvds_unlock_irq_en
      0200F600H   PUBLIC    XDATA    BYTE      trim_flg
      0200F601H   PUBLIC    XDATA    BYTE      delay_cnt_1
      0200F85CH   PUBLIC    XDATA    ---       g_rw_reg_0F85Ch
      0200F85CH   PUBLIC    XDATA    BYTE      reg_0xF85C
      0200F80EH   PUBLIC    XDATA    BYTE      reg_0xF80E
      02001806H   PUBLIC    XDATA    BYTE      r_sscgpll_en_sd
      0200F80AH   PUBLIC    XDATA    BYTE      reg_0xF80A
      0200693FH   PUBLIC    XDATA    BYTE      reg_0x693F
      0200180AH   PUBLIC    XDATA    BYTE      r_sscgpll_en_pll
      0200F842H   PUBLIC    XDATA    BYTE      reg_0xF842
      0200582CH   PUBLIC    XDATA    ---       g_rw_reg_0582Ch
      0200184EH   PUBLIC    XDATA    BYTE      reg_0x184E
      0200383AH   PUBLIC    XDATA    BYTE      reg_0x383A
      02003839H   PUBLIC    XDATA    BYTE      reg_0x3839
      02003819H   PUBLIC    XDATA    BYTE      reg_0x3819
      02003818H   PUBLIC    XDATA    BYTE      reg_0x3818
      02003817H   PUBLIC    XDATA    BYTE      reg_0x3817
      02003816H   PUBLIC    XDATA    BYTE      reg_0x3816
      02003832H   PUBLIC    XDATA    BYTE      reg_0x3832
      02004902H   PUBLIC    XDATA    BYTE      lvds_unlock_irq_ev
      02003801H   PUBLIC    XDATA    BYTE      reg_0x3801
      02001023H   PUBLIC    XDATA    BYTE      reg_0x1023
      0200F82BH   PUBLIC    XDATA    BYTE      g_rw_dbg_mux_002Bh_mcu_top_dbgr_2
      01002EF0H   PUBLIC    CODE     ---       Patch_Reset_rx_flow
      01002ECCH   PUBLIC    CODE     ---       patch_singal_esd_normal_action
      01002B88H   PUBLIC    CODE     ---       patch_singal_esd_mask
      010014FCH   PUBLIC    CODE     ---       Lut_I2c_Slv_RW_Vsync_Handler
      01002C41H   PUBLIC    CODE     ---       patch_monitor_pdf_hit_pol_2_frame_wait_finish
      01002C3BH   PUBLIC    CODE     ---       patch_pdf_hit_frame_interrupt_handler
      01002C35H   PUBLIC    CODE     ---       patch_pdf_hit_pol_2_wait_reg_finish_handler
      01002EA0H   PUBLIC    CODE     ---       patch_pdf_hit_frame_monitor_pol_2_frame_interrutp
      01001AD9H   PUBLIC    CODE     ---       mcu_int_clear_iex4_isr_event
      01001922H   PUBLIC    CODE     ---       mcu_dl_get_ee_path
LX51 LINKER/LOCATER V4.66.97.0                                                        02/28/2025  14:36:19  PAGE 7


      01002C2CH   PUBLIC    CODE     ---       double_patch_iex4_interrupt
      01002C26H   PUBLIC    CODE     ---       double_patch_pdf_wait_reg_finish_handler
      01002C97H   PUBLIC    CODE     ---       patch_pdf_hit_frame_monitor_hit_interrutp
      01002C60H   PUBLIC    CODE     ---       patch_pdf_hit_frame_wait_reg_finish
      01002C20H   PUBLIC    CODE     ---       patch_mcu_entry_dl_hdr
      01002C1AH   PUBLIC    CODE     ---       patch_main_loop_clr_wdog
      01002BF8H   PUBLIC    CODE     ---       patch_watdog_init
      01002DD4H   PUBLIC    CODE     ---       patch_mcu_wdt_reset
      01002DD0H   PUBLIC    CODE     ---       patch_mcu_wdt_init
      01002DB0H   PUBLIC    CODE     ---       patch_delay_100us
      01002D00H   PUBLIC    CODE     ---       Patch_efuse_trim
      01002D88H   PUBLIC    CODE     ---       patch_monitor_lvds_unlock_irq_event
      01001B5DH   PUBLIC    CODE     ---       mcu_int_vsync
      01000473H   PUBLIC    CODE     ---       mcu_entry_dl_hdr
      01001A66H   PUBLIC    CODE     ---       tcon_det_lut_i2c_adr
      01001AEBH   PUBLIC    CODE     ---       mcu_init
      01001BA7H   PUBLIC    CODE     ---       mcu_dl_check
      01000F8CH   PUBLIC    CODE     ---       mcu_dma_i2c_slv_set_ch1
      000000B8H.6 SFRSYM    DATA     BIT       SWDT
      00000086H   SFRSYM    DATA     BYTE      WDTREL
      000000A8H.6 SFRSYM    DATA     BIT       WDT

      01000F8CH   BLOCK     CODE     ---       LVL=0
      01000F8CH   LINE      CODE     ---       #90
      01000F8CH   LINE      CODE     ---       #91
      01000F8CH   LINE      CODE     ---       #92
      ---         BLOCKEND  ---      ---       LVL=0

      01001BA7H   BLOCK     CODE     ---       LVL=0
      01001BA7H   LINE      CODE     ---       #94
      01001BA7H   LINE      CODE     ---       #95
      01001BA7H   LINE      CODE     ---       #96
      ---         BLOCKEND  ---      ---       LVL=0

      01001AEBH   BLOCK     CODE     ---       LVL=0
      01001AEBH   LINE      CODE     ---       #98
      01001AEBH   LINE      CODE     ---       #99
      01001AEBH   LINE      CODE     ---       #100
      ---         BLOCKEND  ---      ---       LVL=0

      01001A66H   BLOCK     CODE     ---       LVL=0
      01001A66H   LINE      CODE     ---       #102
      01001A66H   LINE      CODE     ---       #103
      01001A66H   LINE      CODE     ---       #104
      ---         BLOCKEND  ---      ---       LVL=0

      01000473H   BLOCK     CODE     ---       LVL=0
      01000473H   LINE      CODE     ---       #106
      01000473H   LINE      CODE     ---       #107
      01000473H   LINE      CODE     ---       #108
      ---         BLOCKEND  ---      ---       LVL=0

      01001B5DH   BLOCK     CODE     ---       LVL=0
      01001B5DH   LINE      CODE     ---       #110
      01001B5DH   LINE      CODE     ---       #111
      01001B5DH   LINE      CODE     ---       #113
      ---         BLOCKEND  ---      ---       LVL=0

      01002D88H   BLOCK     CODE     ---       LVL=0
      01002D88H   LINE      CODE     ---       #146
      01002D88H   LINE      CODE     ---       #147
      01002D88H   LINE      CODE     ---       #148
      01002D90H   LINE      CODE     ---       #149
      01002D90H   LINE      CODE     ---       #150
      01002D97H   LINE      CODE     ---       #151
LX51 LINKER/LOCATER V4.66.97.0                                                        02/28/2025  14:36:19  PAGE 8


      01002D98H   LINE      CODE     ---       #152
      01002D9CH   LINE      CODE     ---       #154
      01002DA3H   LINE      CODE     ---       #155
      01002DA4H   LINE      CODE     ---       #156
      01002DA8H   LINE      CODE     ---       #157
      01002DAFH   LINE      CODE     ---       #158
      01002DAFH   LINE      CODE     ---       #159
      ---         BLOCKEND  ---      ---       LVL=0

      01002D00H   BLOCK     CODE     ---       LVL=0
      01002D00H   LINE      CODE     ---       #161
      01002D00H   LINE      CODE     ---       #162
      01002D00H   LINE      CODE     ---       #163
      01002D07H   LINE      CODE     ---       #164
      01002D07H   LINE      CODE     ---       #165
      01002D10H   LINE      CODE     ---       #166
      01002D10H   LINE      CODE     ---       #167
      01002D14H   LINE      CODE     ---       #168
      01002D1BH   LINE      CODE     ---       #170
      01002D21H   LINE      CODE     ---       #171
      01002D28H   LINE      CODE     ---       #172
      01002D2DH   LINE      CODE     ---       #173
      01002D2DH   LINE      CODE     ---       #174
      01002D30H   LINE      CODE     ---       #175
      01002D37H   LINE      CODE     ---       #176
      01002D38H   LINE      CODE     ---       #177
      01002D39H   LINE      CODE     ---       #178
      01002D3AH   LINE      CODE     ---       #179
      01002D3BH   LINE      CODE     ---       #180
      01002D3CH   LINE      CODE     ---       #181
      01002D40H   LINE      CODE     ---       #182
      01002D40H   LINE      CODE     ---       #183
      01002D47H   LINE      CODE     ---       #184
      01002D4CH   LINE      CODE     ---       #185
      01002D4CH   LINE      CODE     ---       #186
      01002D4CH   LINE      CODE     ---       #187
      01002D53H   LINE      CODE     ---       #188
      01002D53H   LINE      CODE     ---       #189
      01002D59H   LINE      CODE     ---       #190
      01002D59H   LINE      CODE     ---       #191
      01002D5BH   LINE      CODE     ---       #192
      01002D63H   LINE      CODE     ---       #193
      01002D6BH   LINE      CODE     ---       #194
      01002D73H   LINE      CODE     ---       #195
      01002D7AH   LINE      CODE     ---       #196
      01002D7AH   LINE      CODE     ---       #197
      01002D81H   LINE      CODE     ---       #198
      01002D84H   LINE      CODE     ---       #199
      01002D84H   LINE      CODE     ---       #200
      ---         BLOCKEND  ---      ---       LVL=0

      01002DB0H   BLOCK     CODE     ---       LVL=0
      01002DB0H   LINE      CODE     ---       #204
      01002DB0H   LINE      CODE     ---       #205
      01002DB0H   LINE      CODE     ---       #206
      01002DC2H   LINE      CODE     ---       #207
      01002DC2H   LINE      CODE     ---       #208
      01002DC3H   LINE      CODE     ---       #209
      01002DC8H   LINE      CODE     ---       #210
      ---         BLOCKEND  ---      ---       LVL=0

      01002DD0H   BLOCK     CODE     ---       LVL=0
      01002DD0H   LINE      CODE     ---       #212
      01002DD0H   LINE      CODE     ---       #213
      01002DD0H   LINE      CODE     ---       #214
LX51 LINKER/LOCATER V4.66.97.0                                                        02/28/2025  14:36:19  PAGE 9


      01002DD3H   LINE      CODE     ---       #217
      ---         BLOCKEND  ---      ---       LVL=0

      01002DD4H   BLOCK     CODE     ---       LVL=0
      01002DD4H   LINE      CODE     ---       #219
      01002DD4H   LINE      CODE     ---       #220
      01002DD4H   LINE      CODE     ---       #221
      01002DD6H   LINE      CODE     ---       #222
      01002DD8H   LINE      CODE     ---       #223
      ---         BLOCKEND  ---      ---       LVL=0

      01002BF8H   BLOCK     CODE     ---       LVL=0
      01002BF8H   LINE      CODE     ---       #225
      01002BF8H   LINE      CODE     ---       #226
      01002BF8H   LINE      CODE     ---       #227
      01002BFBH   LINE      CODE     ---       #228
      ---         BLOCKEND  ---      ---       LVL=0

      01002C1AH   BLOCK     CODE     ---       LVL=0
      01002C1AH   LINE      CODE     ---       #231
      01002C1AH   LINE      CODE     ---       #232
      01002C1AH   LINE      CODE     ---       #233
      01002C1DH   LINE      CODE     ---       #234
      ---         BLOCKEND  ---      ---       LVL=0

      01002C20H   BLOCK     CODE     ---       LVL=0
      01002C20H   LINE      CODE     ---       #237
      01002C20H   LINE      CODE     ---       #238
      01002C20H   LINE      CODE     ---       #239
      01002C23H   LINE      CODE     ---       #240
      ---         BLOCKEND  ---      ---       LVL=0

      01002C60H   BLOCK     CODE     ---       LVL=0
      01002C60H   LINE      CODE     ---       #244
      01002C60H   LINE      CODE     ---       #245
      01002C60H   LINE      CODE     ---       #246
      01002C67H   LINE      CODE     ---       #247
      01002C67H   LINE      CODE     ---       #248
      01002C6EH   LINE      CODE     ---       #249
      01002C74H   LINE      CODE     ---       #250
      01002C7BH   LINE      CODE     ---       #251
      01002C82H   LINE      CODE     ---       #252
      01002C82H   LINE      CODE     ---       #253
      01002C89H   LINE      CODE     ---       #254
      01002C89H   LINE      CODE     ---       #255
      01002C90H   LINE      CODE     ---       #256
      01002C96H   LINE      CODE     ---       #257
      01002C96H   LINE      CODE     ---       #258
      ---         BLOCKEND  ---      ---       LVL=0

      01002C97H   BLOCK     CODE     ---       LVL=0
      01002C97H   LINE      CODE     ---       #260
      01002C97H   LINE      CODE     ---       #261
      01002C97H   LINE      CODE     ---       #262
      01002C9EH   LINE      CODE     ---       #263
      01002C9EH   LINE      CODE     ---       #264
      01002CA8H   LINE      CODE     ---       #265
      01002CA8H   LINE      CODE     ---       #266
      01002CABH   LINE      CODE     ---       #267
      01002CAFH   LINE      CODE     ---       #268
      01002CB1H   LINE      CODE     ---       #270
      01002CB1H   LINE      CODE     ---       #271
      01002CB4H   LINE      CODE     ---       #272
      01002CB8H   LINE      CODE     ---       #273
      01002CB8H   LINE      CODE     ---       #274
LX51 LINKER/LOCATER V4.66.97.0                                                        02/28/2025  14:36:19  PAGE 10


      01002CBEH   LINE      CODE     ---       #275
      01002CBEH   LINE      CODE     ---       #277
      01002CC5H   LINE      CODE     ---       #278
      01002CC5H   LINE      CODE     ---       #279
      01002CCFH   LINE      CODE     ---       #280
      01002CCFH   LINE      CODE     ---       #281
      01002CD2H   LINE      CODE     ---       #282
      01002CD3H   LINE      CODE     ---       #284
      01002CD3H   LINE      CODE     ---       #285
      01002CD6H   LINE      CODE     ---       #286
      01002CD6H   LINE      CODE     ---       #287
      01002CD6H   LINE      CODE     ---       #288
      ---         BLOCKEND  ---      ---       LVL=0

      01002C26H   BLOCK     CODE     ---       LVL=0
      01002C26H   LINE      CODE     ---       #290
      01002C26H   LINE      CODE     ---       #291
      01002C26H   LINE      CODE     ---       #292
      01002C29H   LINE      CODE     ---       #293
      ---         BLOCKEND  ---      ---       LVL=0

      01002C2CH   BLOCK     CODE     ---       LVL=0
      01002C2CH   LINE      CODE     ---       #296
      01002C2CH   LINE      CODE     ---       #297
      01002C2CH   LINE      CODE     ---       #298
      01002C2FH   LINE      CODE     ---       #299
      01002C32H   LINE      CODE     ---       #300
      ---         BLOCKEND  ---      ---       LVL=0

      01001922H   BLOCK     CODE     ---       LVL=0
      01001922H   LINE      CODE     ---       #304
      01001922H   LINE      CODE     ---       #305
      01001922H   LINE      CODE     ---       #307
      ---         BLOCKEND  ---      ---       LVL=0

      01001AD9H   BLOCK     CODE     ---       LVL=0
      01001AD9H   LINE      CODE     ---       #309
      01001AD9H   LINE      CODE     ---       #310
      01001AD9H   LINE      CODE     ---       #312
      ---         BLOCKEND  ---      ---       LVL=0

      01002EA0H   BLOCK     CODE     ---       LVL=0
      01002EA0H   LINE      CODE     ---       #314
      01002EA0H   LINE      CODE     ---       #315
      01002EA0H   LINE      CODE     ---       #316
      01002EAAH   LINE      CODE     ---       #317
      01002EAAH   LINE      CODE     ---       #318
      01002EB4H   LINE      CODE     ---       #320
      01002EB4H   LINE      CODE     ---       #321
      01002EC0H   LINE      CODE     ---       #323
      01002EC0H   LINE      CODE     ---       #324
      01002EC6H   LINE      CODE     ---       #325
      01002EC7H   LINE      CODE     ---       #327
      01002ECBH   LINE      CODE     ---       #328
      ---         BLOCKEND  ---      ---       LVL=0

      01002C35H   BLOCK     CODE     ---       LVL=0
      01002C35H   LINE      CODE     ---       #330
      01002C35H   LINE      CODE     ---       #331
      01002C35H   LINE      CODE     ---       #333
      01002C38H   LINE      CODE     ---       #334
      ---         BLOCKEND  ---      ---       LVL=0

      01002C3BH   BLOCK     CODE     ---       LVL=0
      01002C3BH   LINE      CODE     ---       #337
LX51 LINKER/LOCATER V4.66.97.0                                                        02/28/2025  14:36:19  PAGE 11


      01002C3BH   LINE      CODE     ---       #338
      01002C3BH   LINE      CODE     ---       #339
      01002C3EH   LINE      CODE     ---       #340
      ---         BLOCKEND  ---      ---       LVL=0

      01002C41H   BLOCK     CODE     ---       LVL=0
      01002C41H   LINE      CODE     ---       #343
      01002C41H   LINE      CODE     ---       #344
      01002C41H   LINE      CODE     ---       #345
      01002C48H   LINE      CODE     ---       #346
      01002C48H   LINE      CODE     ---       #347
      01002C4FH   LINE      CODE     ---       #348
      01002C55H   LINE      CODE     ---       #349
      01002C55H   LINE      CODE     ---       #350
      ---         BLOCKEND  ---      ---       LVL=0

      010014FCH   BLOCK     CODE     ---       LVL=0
      010014FCH   LINE      CODE     ---       #352
      010014FCH   LINE      CODE     ---       #353
      010014FCH   LINE      CODE     ---       #355
      ---         BLOCKEND  ---      ---       LVL=0

      01002B88H   BLOCK     CODE     ---       LVL=0
      01002B88H   LINE      CODE     ---       #357
      01002B88H   LINE      CODE     ---       #358
      01002B88H   LINE      CODE     ---       #359
      01002BA0H   LINE      CODE     ---       #360
      01002BA7H   LINE      CODE     ---       #362
      01002BACH   LINE      CODE     ---       #363
      ---         BLOCKEND  ---      ---       LVL=0

      01002ECCH   BLOCK     CODE     ---       LVL=0
      01002ECCH   LINE      CODE     ---       #365
      01002ECCH   LINE      CODE     ---       #366
      01002ECCH   LINE      CODE     ---       #367
      01002ECFH   LINE      CODE     ---       #368
      01002ED6H   LINE      CODE     ---       #369
      01002ED6H   LINE      CODE     ---       #370
      01002ED9H   LINE      CODE     ---       #371
      01002ED9H   LINE      CODE     ---       #373
      01002EDEH   LINE      CODE     ---       #374
      ---         BLOCKEND  ---      ---       LVL=0

      01002EF0H   BLOCK     CODE     ---       LVL=0
      01002EF0H   LINE      CODE     ---       #381
      01002EF0H   LINE      CODE     ---       #382
      01002EF0H   LINE      CODE     ---       #383
      01002EF3H   LINE      CODE     ---       #384
      01002EF3H   LINE      CODE     ---       #386
      01002EFAH   LINE      CODE     ---       #388
      01002F01H   LINE      CODE     ---       #389
      01002F01H   LINE      CODE     ---       #391
      01002F08H   LINE      CODE     ---       #393
      01002F1AH   LINE      CODE     ---       #394
      01002F1AH   LINE      CODE     ---       #395
      01002F1BH   LINE      CODE     ---       #396
      01002F20H   LINE      CODE     ---       #398
      01002F27H   LINE      CODE     ---       #399
      01002F27H   LINE      CODE     ---       #400
      01002F27H   LINE      CODE     ---       #401
      ---         BLOCKEND  ---      ---       LVL=0



*** WARNING L57: UNCALLED FUNCTION, IGNORED FOR OVERLAY PROCESS
LX51 LINKER/LOCATER V4.66.97.0                                                        02/28/2025  14:36:19  PAGE 12


    NAME:    MCU_DMA_I2C_SLV_SET_CH1/CSOT_PATCH_HANDLER

*** WARNING L57: UNCALLED FUNCTION, IGNORED FOR OVERLAY PROCESS
    NAME:    PATCH_WATDOG_INIT/CSOT_PATCH_HANDLER

*** WARNING L57: UNCALLED FUNCTION, IGNORED FOR OVERLAY PROCESS
    NAME:    PATCH_MAIN_LOOP_CLR_WDOG/CSOT_PATCH_HANDLER

*** WARNING L57: UNCALLED FUNCTION, IGNORED FOR OVERLAY PROCESS
    NAME:    PATCH_MCU_ENTRY_DL_HDR/CSOT_PATCH_HANDLER

*** WARNING L57: UNCALLED FUNCTION, IGNORED FOR OVERLAY PROCESS
    NAME:    DOUBLE_PATCH_PDF_WAIT_REG_FINISH_HANDLER/CSOT_PATCH_HANDLER

*** WARNING L57: UNCALLED FUNCTION, IGNORED FOR OVERLAY PROCESS
    NAME:    DOUBLE_PATCH_IEX4_INTERRUPT/CSOT_PATCH_HANDLER

*** WARNING L57: UNCALLED FUNCTION, IGNORED FOR OVERLAY PROCESS
    NAME:    PATCH_PDF_HIT_POL_2_WAIT_REG_FINISH_HANDLER/CSOT_PATCH_HANDLER

*** WARNING L57: UNCALLED FUNCTION, IGNORED FOR OVERLAY PROCESS
    NAME:    PATCH_PDF_HIT_FRAME_INTERRUPT_HANDLER/CSOT_PATCH_HANDLER

*** WARNING L57: UNCALLED FUNCTION, IGNORED FOR OVERLAY PROCESS
    NAME:    PATCH_EFUSE_TRIM/CSOT_PATCH_HANDLER

*** WARNING L57: UNCALLED FUNCTION, IGNORED FOR OVERLAY PROCESS
    NAME:    PATCH_SINGAL_ESD_NORMAL_ACTION/CSOT_PATCH_HANDLER

*** WARNING L57: UNCALLED FUNCTION, IGNORED FOR OVERLAY PROCESS
    NAME:    PATCH_RESET_RX_FLOW/CSOT_PATCH_HANDLER

*** WARNING L30: MEMORY SPACE OVERLAP
    SEG:     ?XD?CSOT_PATCH_HANDLER?19
    FROM:    X:00F85CH   
    TO:      X:00F85DH   

Program Size: data=11.3 xdata=32 const=0 code=581
LX51 RUN COMPLETE.  12 WARNING(S),  0 ERROR(S)
